:020000040000FA
:1000000083018A01000008280900000000000000A8
:100010006400883095001330960000308E00003068
:100020008F00313090000B3097005F30A0002130FE
:1000300084008001840AA00B192807309F0000303B
:100040008500003086008316FF308500F83086007A
:10005000811383120C19A0170C1DA0130C1D2E2840
:100060000C1164002014851C36282010A0102018C4
:100070002015201C201105183E282011201D412884
:10008000A01420182015201C2011A0194828201188
:10009000201D4B28A014A0182014A01C20102018EC
:1000A000A015201CA0112014A01957282010201ED4
:1000B0005A28201083102018831483180614831CD8
:1000C00006102014A01965282010A01E68282010F2
:1000D000201C89283308A2006430A60034102208AE
:1000E0002606A1002608A202A11F7C2822082606B7
:1000F000A100A11B7C283414341C8128A21B3410BD
:100100008328A21B34143418862888282010B30AA8
:100110008A28B30120182016201C20122014201A2F
:1001200092282010201F9528201083102018831457
:1001300083188614831C86102014201AA0282010EF
:10014000A01EA3282010201CC4283508A20064305B
:10015000A600341022082606A1002608A202A11F2C
:10016000B72822082606A100A11BB7283414341C86
:10017000BC28A21B3410BE28A21B34143418C1287A
:10018000C3282010B50AC528B50120182017201C47
:1001900020132014201BCD282010A01ED0282010B2
:1001A00083102018831483180615831C061120144D
:1001B000201BDB282010A01EDE282010201CFF287A
:1001C0003608A2006430A600341022082606A100DA
:1001D0002608A202A11FF22822082606A100A11BC0
:1001E000F2283414341CF728A21B3410F928A21B5F
:1001F00034143418FC28FE282010B60A0029B60151
:0C0200002018A016201CA0122928052997
:02400E00623F0F
:00000001FF
